S0110000436C6F636B5F4150502E73726563E7
S11300000C942A000C9447000C9447000C9447006D
S11300100C94A2040C947B040C9447000C944700A9
S11300200C9447000C9447000C9441040C941A045B
S11300300C9447000C9447000C9447000C94470020
S11300400C9447000C9447000C9447000C94470010
S11300500C94470011241FBECFE5D8E0DEBFCDBF0E
S113006010E0A0E6B0E0EAEDF9E002C005900D92E0
S1130070AA36B107D9F720E0AAE6B0E001C01D9284
S1130080A937B207E1F70E9409030C94EB040C941E
S113009000008FE087BB88B3806F88BB089588B366
S11300A08E7F88BB88B3826088BB88B3846088BB3A
S11300B088B3886088BBB49B5CC0B59B5CC0B69BAE
S11300C05CC0B79B5CC08FE99FE00197F1F700C06B
S11300D0000088B3816088BB88B38D7F88BB88B3F8
S11300E0846088BB88B3886088BBB49B4AC0B59BD6
S11300F04AC0B69B4AC0B79B4AC08FE99FE00197AC
S1130100F1F700C0000088B3816088BB88B38260C7
S113011088BB88B38B7F88BB88B3886088BBB49B5B
S113012038C0B59B38C0B69B38C0B79B38C08FE980
S11301309FE00197F1F700C0000088B3816088BB9D
S113014088B3826088BB88B3846088BB88B3877FA8
S113015088BBB49B26C0B59B26C0B69B26C0B79B64
S113016026C08FE99FE00197F1F700C0000080E00E
S1130170089587E3089584E3089581E3089583E46B
S1130180089588E3089585E3089582E3089580E35C
S1130190089589E3089586E3089583E308958DE33C
S11301A008958FE208958AE208958DE208958BE21E
S11301B008959BB39D7F9BBB882324F49BB39064D9
S11301C09BBB03C09BB39F7B9BBB86FF04C09BB3BD
S11301D090629BBB03C09BB39F7D9BBB85FF04C008
S11301E09BB390619BBB03C09BB39F7E9BBB84FF6F
S11301F004C09BB398609BBB03C09BB3977F9BBB1E
S11302009BB394609BBBEFE9FFE03197F1F700C02B
S113021000009BB39B7F9BBBEFE9FFE03197F1F7B5
S113022000C0000083FF04C09BB390649BBB03C069
S11302309BB39F7B9BBB82FF04C09BB390629BBB21
S113024003C09BB39F7D9BBB81FF04C09BB39061A4
S11302509BBB03C09BB39F7E9BBB80FF04C08BB33F
S113026088608BBB03C08BB3877F8BBB8BB38460ED
S11302708BBB8FE99FE00197F1F700C000008BB3BF
S11302808B7F8BBBEFE9FFE03197F1F700C00000F3
S113029008958AB38E678ABB83E00E94D9008FE7F2
S11302A09EE30197F1F700C0000083E00E94D900AB
S11302B08FE79EE30197F1F700C0000083E00E94FE
S11302C0D9008FE79EE30197F1F700C0000082E0B8
S11302D00E94D90088E20E94D90088E00E94D900D7
S11302E081E00E94D90086E00E94D9008CE00E943F
S11302F0D9009FEF29EF80E0915020408040E1F742
S113030000C0000008959BB392609BBB882324F433
S11303109BB390649BBB03C09BB39F7B9BBB86FF3B
S113032004C09BB390629BBB03C09BB39F7D9BBBEC
S113033085FF04C09BB390619BBB03C09BB39F7EAE
S11303409BBB84FF04C09BB398609BBB03C09BB35F
S1130350977F9BBB9BB394609BBBEFE9FFE0319716
S1130360F1F700C000009BB39B7F9BBBEFE9FFE06C
S11303703197F1F700C0000083FF04C09BB3906481
S11303809BBB03C09BB39F7B9BBB82FF04C09BB3FF
S113039090629BBB03C09BB39F7D9BBB81FF04C04A
S11303A09BB390619BBB03C09BB39F7E9BBB80FFB1
S11303B004C08BB388608BBB03C08BB3877F8BBBBC
S11303C08BB384608BBB8FE99FE00197F1F700C08A
S11303D000008BB38B7F8BBBEFE9FFE03197F1F724
S11303E000C0000008951F93CF93DF93CDB7DEB70D
S11303F02A970FB6F894DEBF0FBECDBFFE0131962B
S11304002AE0DF011D922A95E9F76115710581053E
S11304109105D1F480E30E9483012CC02AE030E0EE
S113042040E050E00E94C904E1E0F0E0EC0FFD1F61
S1130430E10FF11D17FDFA95605D6083622F732F44
S1130440842F952F1F5F01C010E061157105810590
S1130450910521F711500CC0E1E0F0E0EC0FFD1F15
S1130460E10FF11D17FDFA9580810E94830111505F
S1130470112394F72A960FB6F894DEBF0FBECDBFB2
S1130480DF91CF911F91089580916C00811124C058
S113049080916B008F5F80936B008D33E9F4109231
S11304A06B00809170008F5F809370008C33A1F497
S11304B01092700080916F008F5F80936F008C3377
S11304C059F410926F0080916E008F5F80936E00DC
S11304D0883111F410926E00089580916A008F5F44
S11304E080936A00833071F128F4813059F08230AE
S11304F0B1F00895853009F445C088F1863009F4D7
S11305004EC00895809170009DEC899F812D112427
S113051061E08695869586950E94DD030895809115
S113052070009DEC899F912D112496959695969532
S1130530990F292F220F220F920F62E0891B0E942C
S1130540DD03089580916F009DEC899F812D112416
S113055063E08695869586950E94DD0308958091D3
S11305606F009DEC899F912D1124969596959695F3
S1130570990F292F220F220F920F64E0891B0E94EA
S1130580DD03089580916E009DEC899F812D1124D7
S113059065E08695869586950E94DD030895809191
S11305A06E009DEC899F912D1124969596959695B4
S11305B0990F292F220F220F920F66E0891B0E94A8
S11305C0DD0310926A00089580E80E94D9006091CA
S11305D06E0070E080E090E00E94F30182E80E94E7
S11305E0D9008AE30E94830160916F0070E080E08B
S11305F090E00E94F30185E80E94D9008AE30E94FA
S113060083016091700070E080E090E00E94F3014B
S1130610089584E492E090937600809375008DE6CB
S113062092E090937200809371000E9468040E948B
S11306300A040E94D6030E9449000E9449010E94B4
S11306404F00833409F0ABC00E944F0080936D00CB
S11306500E944F0090916D008917D1F381E080933F
S11306606C0042C00E944F0080936D000E944F00B6
S113067090916D008917D1F30E944F008B32C1F421
S11306800E944F0080936D000E944F0090916D0076
S11306908917D1F380916E00873111F410926E00A6
S11306A080916E008F5F80936E000E94E4021CC0F4
S11306B00E944F008D32C1F40E944F0080936D0060
S11306C00E944F0090916D008917D1F380916E00C4
S11306D0811103C087E180936E0080916E00815088
S11306E080936E000E94E4020E944F00833409F05C
S11306F0B9CF0E944F008334E1F342C00E944F00FF
S113070080936D000E944F0090916D008917D1F382
S11307100E944F008B32C1F40E944F0080936D0001
S11307200E944F0090916D008917D1F380916F0062
S11307308B3311F410926F0080916F008F5F809360
S11307406F000E94E4021CC00E944F008D32C1F46D
S11307500E944F0080936D000E944F0090916D00A5
S11307608917D1F380916F00811103C08BE38093CB
S11307706F0080916F00815080936F000E94E402AB
S11307800E944F00833409F0B9CF10926C0081E0CD
S11307900E94D9000E944F008334E1F350CF80912E
S11307A06C0081114CCF0E94E40249CF84B38F675F
S11307B084BB81B38F6381BB089512BA6330A1F007
S11307C028F4613049F0623059F01DC06530A1F061
S11307D078F06630A9F017C092B3916092BB13C051
S11307E092B3926092BB0FC092B3946092BB0BC061
S11307F092B3986092BB07C092B3906192BB03C05E
S113080092B3906292BBE82FF0E0E05AFF4F8081F0
S113081085BB089583B7816083BF83B7826083BF3C
S113082083B7806883BF89B7816089BF8FB78068C9
S11308308FBF08951F920F920FB60F9211242F931A
S11308403F934F935F936F937F938F939F93AF9354
S1130850BF93EF93FF93E0917100F09172000995BB
S1130860FF91EF91BF91AF919F918F917F916F9184
S11308705F914F913F912F910F900FBE0F901F905A
S113088018951F920F920FB60F9211242F933F9336
S11308904F935F936F937F938F939F93AF93BF9384
S11308A0EF93FF93E0917300F09174000995FF9129
S11308B0EF91BF91AF919F918F917F916F915F91D4
S11308C04F913F912F910F900FBE0F901F9018954D
S11308D085B5806885BD85B5816085BD85B5826037
S11308E085BD85B5846085BD89B7806489BF8FB7B0
S11308F080688FBF08951F920F920FB60F92112434
S11309002F933F934F935F936F937F938F939F9313
S1130910AF93BF93EF93FF93E0917500F09176004E
S11309200995FF91EF91BF91AF919F918F917F9125
S11309306F915F914F913F912F910F900FBE0F9048
S11309401F9018951F920F920FB60F9211242F9398
S11309503F934F935F936F937F938F939F93AF9343
S1130960BF93EF93FF93E0917700F091780009959E
S1130970FF91EF91BF91AF919F918F917F916F9173
S11309805F914F913F912F910F900FBE0F901F9049
S11309901895A1E21A2EAA1BBB1BFD010DC0AA1FAC
S11309A0BB1FEE1FFF1FA217B307E407F50720F0D4
S11309B0A21BB30BE40BF50B661F771F881F991F4F
S11309C01A9469F760957095809590959B01AC0198
S10D09D0BD01CF010895F894FFCF94
S10D09DA407924301912027800104D
S9030000FC
